:100000000C9456000C9468000C9468000C946800E2
:100010000C9468000C9468000C9468000C946800C0
:100020000C9468000C9468000C9468000C946800B0
:100030000C9468000C9468000C9468000C946800A0
:100040000C9468000C9468000C9468000C94680090
:100050000C9468000C9468000C9468000C94680080
:100060000C9468000C9468000C9468000C94680070
:100070000C9468000C9468000C9468000C94680060
:100080000C9468000C9468000C9468000C94680050
:100090000C9468000C9468000C9468000C94680040
:1000A0000C9468000C9468000C94680011241FBE26
:1000B000CFEFDAE0DEBFCDBF21E0A0E0B1E001C0CC
:1000C0001D92A630B207E1F70E9428010C940702A6
:1000D0000C9400000F93CF93DF9300D000D0CDB7E6
:1000E000DEB70DB407FEFDCF69834A832B830C83F3
:1000F00028988EBD0DB407FEFDCFFE0131969E01FE
:100100002B5F3F4F81918EBD0DB407FEFDCFE217EF
:10011000F307C1F7289A0F900F900F900F90DF917F
:10012000CF910F9108950DB407FEFDCF289881E877
:100130008EBD0DB407FEFDCF8CE08EBD0DB407FE65
:10014000FDCF289A08950DB407FEFDCF289881E8C9
:100150008EBD0DB407FEFDCF80E18EBD0DB407FE50
:10016000FDCF289A0895CF93DF9300D000D0CDB76C
:10017000DEB70DB407FEFDCF28981EBC0DB407FEF8
:10018000FDCFFE0131969E012B5F3F4FDF014EB543
:100190004D930DB407FEFDCFA217B307C1F7289A00
:1001A000DC0181918D93E217F307D9F70F900F903F
:1001B0000F900F90DF91CF91089543B120910401EA
:1001C00030910501220F331F306E45FB882780F9DF
:1001D00090E0282B392B309305012093040181E016
:1001E0002130304F08F080E0089543B120910201A2
:1001F00030910301220F331F306E46FB882780F9B0
:1002000090E0282B392B309303012093020181E0E9
:100210002130304F08F080E0089586B12091000130
:1002200030910101220F331F306E082E000C990B04
:100230008827990F881F9927282B392B3093010184
:100240002093000181E02130304F08F080E00895D4
:10025000CF93DF93CDB7DEB72C970FB6F894DEBF00
:100260000FBECDBF17B88FEF80BB87E084B980E8A1
:1002700088B981E685B98CEF81BB82E58CBD1DBC58
:1002800064E7F62E73E7972E15E6E6E6AE2EF9E65E
:10029000BF2EA2E7EA2EFD829E821F83F886A982E6
:1002A000BA82EB821C830E94A3008FE19EE4019737
:1002B000F1F700C000009FEF22E587E09150204059
:1002C0008040E1F700C00000CE0109960E94B30013
:1002D000BE016B5F7F4FCE0109960E94FE01892B04
:1002E000D1F20E9493008FE19EE40197F1F700C0E4
:1002F00000000BE423E441E464E580E80E946A0026
:100300009FEF20E782E0915020408040E1F700C05D
:1003100000008091020190910301FD829E821F8363
:10032000F886A982BA82EB821C8323B126FBCC24F7
:10033000C0F8D12C880F991F906E8C299D2990931D
:10034000030180930201813020EF920730F7809102
:10035000000190910101FD829E821F83F886A9828F
:10036000BA82EB821C8346B1880F991F9C01306EC4
:10037000842F440F990B8827990F881F9927822B68
:10038000932B9093010180930001813020EF92071D
:1003900010F7A982BA82EB821C830E94930005E6C3
:1003A00022E749E666E680E80E946A009FEF20E7C0
:1003B00082E0915020408040E1F700C000000E94A0
:1003C000A3008FE19EE40197F1F700C000009FEFCA
:1003D00022E587E0915020408040E1F700C0000016
:1003E000CE0109960E94B300BE016F5F7F4FCE0120
:1003F00009960E94FE01892B61F24DCFFB01DC01C1
:100400008D91019080190110D9F3990B0895F894FA
:02041000FFCF1C
:00000001FF
