:100000000C9456000C9460000C9460000C946000FA
:100010000C9460000C9460000C9460000C946000E0
:100020000C9460000C9460000C9460000C946000D0
:100030000C9460000C9460000C9460000C946000C0
:100040000C9460000C9460000C9460000C946000B0
:100050000C9460000C9460000C9460000C946000A0
:100060000C9460000C9460000C9460000C94600090
:100070000C9460000C9460000C9460000C94600080
:100080000C9460000C9460000C9460000C94600070
:100090000C9460000C9460000C9460000C94600060
:1000A0000C9460000C9460000C94600011241FBE3E
:1000B000CFEFDAE0DEBFCDBF0E946D000C94AB0045
:1000C0000C9400000DB407FC02C080E008958EBDC2
:1000D00081B3809581BB81E0089587E084B98FEF7B
:1000E00080BB2FEF30E742E0215030404040E1F745
:1000F00000C0000081BB85B982E58CBD80E88DBD64
:100100008FEF90E722E0815090402040E1F700C05F
:10011000000015B881E68EBD21E68FEF0AC081BBD5
:100120003FEF40E792E0315040409040E1F700C09F
:1001300000000DB407FEF3CF2EBD11BA9DB59F7719
:100140009DBD3FE748E391E0315040409040E1F7EA
:0A01500000C00000E4CFF894FFCFD8
:00000001FF
